:020000040001F9
:10900000C02F0020E19301000B9401000D9401009A
:109010000F9401001194010013940100000000005E
:109020000000000000000000000000001594010096
:109030001794010000000000199401001B94010026
:109040000D9601001D940100B5990100A59901003C
:109050001D94010000000000699501007596010053
:109060001D9401001D9401001D9401001D94010038
:109070001D9401001D9401001D9401001D94010028
:109080001D940100659601001D9401001D940100CE
:109090001D9401001D9401001D9801001D94010004
:1090A0001D9401001D94010000000000000000005C
:1090B0001D9401001D94010000000000000000004C
:1090C00000000000000000000000000000000000A0
:1090D0000000000000000000000000000000000090
:1090E0000000000000000000000000000000000080
:1090F0000000000000000000000000000000000070
:10910000000000000000000000000000000000005F
:10911000000000000000000000000000000000004F
:10912000000000000000000000000000000000003F
:10913000000000000000000000000000000000002F
:10914000000000000000000000000000000000001F
:10915000000000000000000000000000000000000F
:1091600000000000000000000000000000000000FF
:1091700000000000000000000000000000000000EF
:1091800000000000000000000000000000000000DF
:1091900000000000000000000000000000000000CF
:1091A00000000000000000000000000000000000BF
:1091B00000000000000000000000000000000000AF
:1091C000000000000000000000000000000000009F
:1091D000000000000000000000000000000000008F
:1091E000000000000000000000000000000000007F
:1091F000000000000000000000000000000000006F
:10920000DFF810D000F09EF90048004741B201009D
:10921000AFF30080C02F002000B583B00290009112
:10922000019244F2010071466A4600F019FD03B054
:1092300000BD000030B450E8012F93B2C48923442C
:109240008489A34228BF1B1B0489A34202BFBFF32A
:109250002F8F002007E0C3EA020340E80134002C0E
:10926000E9D14FF001000A6030BC704750E8012F8F
:10927000C2EA024240E801210029F7D1704730B428
:1092800050E8022F1FFAA2F3C488A34202BFBFF323
:109290002F8F00200DE0C48923448489A34228BF76
:1092A0001B1BC2EA034340E80234002CE8D14FF014
:1092B00001000A6030BC704750E8022FC2EA224227
:1092C00040E802210029F7D17047034653E8022FF6
:1092D000D988B2EB324F4FF0000017BF92B241EA8B
:1092E000014142EA014104E05A68B2EB324F08BF43
:1092F000012043E80212002AE8D1704730B4044646
:1093000054E8000F0D4644E80053002BF8D11560D7
:1093100030BC704730B4044654E8000F40EA010501
:1093200044E80053002BF7D1156030BC704730B4CF
:10933000044654E8000F00EA010544E80053002BFE
:10934000F7D1156030BC704730B4044654E8000FC4
:1093500080EA010544E80053002BF7D1156030BCCA
:10936000704730B4044654E8000F00EB010544E8B0
:109370000053002BF7D1156030BC704730B4044661
:1093800054E8000FA0EB010544E80053002BF7D18F
:10939000156030BC704770B404464FF0000054E8CC
:1093A000006F0D68AE4207BF44E80023012044E887
:1093B00000630E60002B1CBF0020F0E770BC7047FC
:1093C00030B4044654E8000F88422CBF451A0546C5
:1093D00044E80053002BF5D1156030BC7047000005
:1093E0000F4800680F4909680A280AD1002908D1E6
:1093F0000D4802686FF070031A404FF040031A43A3
:1094000002600A4880470A480047FEE7FEE7FEE799
:10941000FEE7FEE7FEE7FEE7FEE7FEE7FEE7000009
:109420003001001034010010E40E004021980100CA
:10943000019201002DE9F05F0546002092469B460F
:1094400088460646814640241BE02846414647465A
:10945000224600F067F853465A46C01A914110D38D
:1094600011461846224600F016F82D1A67EB01083F
:109470004F4622460120002100F00DF817EB0009AD
:109480004E41201EA4F10104DFDC484631462A4645
:109490004346BDE8F09F202A04DB203A00FA02F19F
:1094A000002070479140C2F1200320FA03F31943D2
:1094B0009040704700487047ECDD010040EA01032E
:1094C0009B0703D009E008C9121F08C0042AFAD27A
:1094D00003E011F8013B00F8013B521EF9D270473E
:1094E000D2B201E000F8012B491EFBD270470022E6
:1094F000F6E710B513460A4604461946FFF7F0FF93
:10950000204610BD421C10F8011B0029FBD1801A17
:109510007047034611F8012B00F8012B002AF9D1FE
:1095200018467047202A04DB203A21FA02F0002175
:10953000704721FA02F3D040C2F120029140084363
:1095400019467047064C074D06E0E06840F00103FD
:1095500094E8070098471034AC42F6D3FFF754FE66
:10956000F8E2010018E301002DE9F8430025DFF8D7
:1095700094804FF4807601242F460095304602F007
:109580001DFB38B1D8F80403204203D0304602F066
:109590000BFB2543361D64007F1CB6B2082FEDD3AC
:1095A0004FF4BE74204602F009FB48B1204602F099
:1095B000FBFA45F000456A460121002002F0DEFA80
:1095C00015F0FF0F16D0012600242E420ED008EB16
:1095D0008401D1F81005D1F81015C0F304200A4A0F
:1095E000C1F3014152F8242002B190477600641C77
:1095F000082CEAD3002D02DA684603F0B7FBBDE879
:10960000F883000000600040501E002070B54FF449
:109610008076304602F014F9114CB50560B1304641
:1096200002F015F90120C5F80803607920B901207E
:1096300060712168002088474FF48276304602F03E
:10964000FFF800280AD0304602F001F90220C5F8E0
:1096500008032168BDE870400120084770BD000084
:10966000201B002002490248091F096800680847BA
:10967000581B00202DE9FE434FF48278404602F04B
:109680005FFE4C4F00254C4C012600B3404602F0D3
:109690005FFE94F82E0010B194F82F10D1B18DF820
:1096A0000050616801912189ADF80810E26832B17B
:1096B000218B618362602181E56010B102E0257435
:1096C00000E03E6021686846884784F82F5094F88F
:1096D0002E0060B34FF48077384602F031FE30B38D
:1096E000384602F035FE628B94F82D108A420AD972
:1096F000A2EB010080B260832289A2EB00006268C5
:1097000002EB400005E007D1E06828B184F82F6043
:10971000658302F003FE04E08A4202D184F82F60E0
:109720006583404602F014FE2248001D06604FF497
:109730008877384602F004FE48B1384602F008FE49
:10974000257402208DF800002168684688474FF490
:109750008A77384602F0F4FD28B1384602F0F8FD69
:109760002574BDE8FE834FF000484FF48C7967699B
:109770001DE000BFB7FA87F028FA00F109EB800579
:109780008F43284602F0DCFD88B1284602F0E0FD58
:10979000A5F58C75E8088DF8040045F38000401CA1
:1097A0008DF800608DF80500216868468847002F15
:1097B000E0D1D6E7007000400C1E002000F000B998
:1097C00070B50E46144900EB400001EBC00514468D
:1097D000E86A183520B101280FD0022805D113E01E
:1097E000284600F021F9A04201D2002411E02246CF
:1097F0003146284600F05DF90BE0284600F014F9E8
:10980000A042F4D20446F2E73146284600F024F99B
:109810000446204670BD00003825002002F088BEB6
:1098200010B54FF080530022D3E94C100A2905D11E
:10983000D3F84432514CC3F3423323600A2907D191
:109840004B07C3F80C21C3F810214C4B1B1F1A60A7
:109850000A2955D14A4A12684A4B1A60484A121DD1
:1098600012681B1D1A60464A083212681B1D1A60D6
:10987000434A0C3212681B1D1A60414A10321268AA
:109880001B1D1A603E4A143212681B1D1A603C4AA6
:10989000183212683B4B20331A60394A1C32126866
:1098A0001B1D1A60364A203212681B1D1A60344A8A
:1098B000243212681B1D1A60314A283212681B1D9F
:1098C0001A602F4A2C3212681B1D1A602C4A303243
:1098D00012682C4B40331A60294A343212681B1D1F
:1098E0001A60274A383212681B1D1A60244A3C321B
:1098F00012681B1D1A60224A403212681B1D1A6032
:109900000A2906D1204A1368DB0702D06FF0010351
:1099100013600A2905D120B11C48016841F00F01EC
:1099200001604FF01022D2F80002002803DBD2F8C9
:10993000040200281EDA012003F0E0F81521C2F825
:10994000001213480368002BFCD0C2F8041201680F
:109950000029FCD0002003F0D1F8BFF34F8F0D4851
:1099600001680D4A01F4E06111430160BFF34F8FBC
:1099700000BFFDE70A490948086010BD3C050040EA
:109980000404001020C5004000040040E40E004024
:1099900000E401400CED00E00400FA050090D00363
:1099A000CC1B00200149024803F07ABEAC1E002007
:1099B000003000400148006800470000281B0020DC
:1099C00010B5124C02202061606111A0A06104F169
:1099D0007800E0614FF4007020620020A0626062B5
:1099E0000BA1A164E06204F51E71E1641021A06581
:1099F000C4E91410E06509A1E01DFFF78AFD08A184
:109A00002046FFF786FD2020A07110BD38250020DC
:109A10005465726D696E616C000000005254540010
:109A200053454747455200000269C1688A4203D83E
:109A30008068401A104400E0501A401E7047002809
:109A400009DB00F01F02012191404009800000F174
:109A5000E020C0F8801270472DE9F047C46817462F
:109A6000894606464FF000083069A04201D9051B1F
:109A700002E0B168201A0D1AB0686D1E001BA842E2
:109A800000D80546BD4200D33D4670682A462044B2
:109A90004946FFF713FDB0687F1B2C44A844A94436
:109AA000A04200D10024F460002FDDD14046BDE883
:109AB000F0872DE9F04104468846D4E90207C51B2A
:109AC000E168606816460844B54206D94146FFF78A
:109AD000F5FCB819E060BDE8F0812A464146FFF781
:109AE000EDFC761B08EB050132466068FFF7E6FCEB
:109AF000E660F0E702E008C8121F08C1002AFAD1A8
:109B000070477047002001E001C1121F002AFBD1FD
:109B1000704700000121202803DA814005480140F8
:109B200003E0402802DA2038814009B10120704763
:109B300000207047FC06FFBD70B5A6B02648002582
:109B4000249590F822008DF892003C216846FFF79A
:109B5000CEFC02208DF8000001248DF80240062082
:109B60008DF803003C210FA8FFF7C1FC24A81B4E71
:109B70001490ADF84C40321D6846316800F022FA6E
:109B800018B117A25321FFF747FB144A0FA80C3254
:109B9000B16800F017FA18B111A25621FFF73CFB8B
:109BA00018211EA8FFF7A3FC8DF88D404FF4C86064
:109BB0000A498DF878402090ADF884501F958DF8B3
:109BC0008C501EAA081F72DF002803D004A2642153
:109BD000FFF722FB26B070BD1C1C0020E81A0020F5
:109BE0002E2E5C2E2E5C2E2E5C6C69625C61707079
:109BF0005C6170705F626C652E6300000B480C49FD
:109C000010B5401AC008032101EB004009A102F081
:109C1000BDF90B480121007873DF002805D0BDE8AD
:109C2000104008A2B921FFF7F7BA10BD98E3010070
:109C300028E30100414456207374617274000000EF
:109C4000E41A00202E2E5C2E2E5C2E2E5C6C696297
:109C50005C6170705C6170705F626C652E630000A7
:109C6000FEB515460E46074672B602F035FA00BF3D
:109C700002F072F80028FBD12249234A0120891AF8
:109C8000C90800EB0144012F22D06FF4805038182E
:109C900021D0B0F5405F23D06FF44051C842204638
:109CA00005D1D5E9003219A102F07BF903E0324673
:109CB0001DA102F06FF922480068C00700D000BE65
:109CC0002A4603B031463846BDE8F04000F07AB885
:109CD00020461CA101E0204622A102F057F9EAE744
:109CE000A86802F0EBFC0346D5E90001CDE90010BD
:109CF0000296204624A1AA6802F05BF920462CA116
:109D0000EBE7000098E3010028E3010041535345CD
:109D10005254494F4E204641494C454420617420DD
:109D200025733A2575000000554E4B4E4F574E2077
:109D30004641554C54206174203078253038580005
:109D4000F0ED00E0534F46544445564943453A2010
:109D5000415353455254494F4E204641494C454486
:109D600000000000534F46544445564943453A20AD
:109D7000494E56414C4944204D454D4F5259204182
:109D800043434553530000004552524F522025751E
:109D9000205B25735D2061742025733A25750D0ABB
:109DA00050432061743A2030782530387800000024
:109DB000456E64206F66206572726F7220726570E6
:109DC0006F72740008B501238DF800309DF80030E3
:109DD000144B186059609A606FF48041401807D0A6
:109DE00001280FD1DA60D86800689861D86807E068
:109DF0001A61186980685861186900689861186963
:109E00004068D861186858689868D86818695869AF
:109E10009869D86972B600BF9DF800000028FBD190
:109E200062B608BDE01E0020014800F008BF000037
:109E3000381B002010B55AB100684FF0FF340129DB
:109E40004261C0E9024400D000210161002010BD40
:109E5000072010BD38B511480823582241680091E9
:109E60000F49006801F007FB002815D10D4A69462B
:109E70000D4800F0E9FE04000ED101210A4800F06F
:109E80005EFF0123094A1946074800F0B0FE064963
:109E9000012008390870204638BD00000CDB0100A5
:109EA000101F002005CF0100381B0020FFFF7F009E
:109EB000F8B50446002617460D468DF80060684642
:109EC00000F042F8D4E90201C04370EA010005D075
:109ED0009DF8000000F05CF80020F8BD01F026F8C5
:109EE00040197141C4E902019DF8000000F050F8EA
:109EF000A761206900B125612146BDE8F840002036
:109F000003F08ABB38B5044600208DF8000068468F
:109F100000F01AF8D4E90201C04370EA01000DD044
:109F20004FF0FF30C4E902009DF8000000F030F867
:109F30002146BDE83840012003F06EBB9DF80000CB
:109F400000F026F8002038BD30B5EFF3108172B66E
:109F50000D4A9468012324B10370002900D162B630
:109F600030BD93604FF0E023D3F88051074C25407B
:109F70001560C3F88041D3F8844154605A17C3F880
:109F8000842100220270E8E7681F0020FC06FFBD64
:109F90000B498A68002A11D000280FD1EFF31080F6
:109FA00072B60B684FF0E022C2F800314B68C2F87D
:109FB000043100228A60002800D162B67047000098
:109FC000681F00202DE9FC470025178806461580EC
:109FD00090F82D001446894630B13A46214648464D
:109FE00000F0E6F8051E09D1B0784FF00C0A18B35E
:109FF0002088C846001DB84202D95046BDE8FC87FB
:10A00000684679DF0028F9D12088032108F800107C
:10A0100020881921401C80B2208008F80010208878
:10A02000401C80B2208000EB0801BDF8000003F066
:10A0300001FC218808442080F0780222C8B12188E0
:10A0400096F9033001F1030C4846BC45D5D842547B
:10A0500021884FF0010C491C89B2218000F801C011
:10A060002188491C89B2218009F801302088401CD0
:10A0700020807068B8B1218890F9003001F1030C9C
:10A080004846BC45B9D8425421880A22491C89B2A5
:10A09000218042542188491C89B2218009F801306D
:10A0A0002088401C2080308950B1CDE900474B46C4
:10A0B0000622022106F1080003F062FC051E9DD174
:10A0C000308A50B1CDE900474B460722032106F103
:10A0D000100003F055FC051E90D1308B50B1CDE936
:10A0E00000474B461522142106F1180003F048FCE6
:10A0F000051E83D1306A30B13B462246494600F006
:10A10000ABFC051EDBD1706A30B13B4622464946A6
:10A1100001F0D4F8051ED2D196F82C0038B13B4698
:10A1200022464946304603F091F8051EC7D13078E3
:10A1300038B13B4622464946304601F049F9051EF2
:10A14000BDD128465AE7000070B5040012D0014680
:10A150001C221448FFF7B2F91248134D056020681D
:10A1600050B17ADF002806D1206801682960406874
:10A17000686005E00E2070BD0B487BDF0028FAD137
:10A1800008484FF6FF711438084A20F8041B0549A7
:10A19000343901600021FFF74DFE0028EBD0032089
:10A1A00070BD0000741D0020181B0020F5D80100B0
:10A1B0007CB5054608880C460930904201D90C2030
:10A1C0007CBD68466DDF0028FAD1218808206854DC
:10A1D00020881B21401C80B2208029542088401CEC
:10A1E00080B220802844DDF801100160BDF8051020
:10A1F00081802088801D80B220809DF80010490851
:10A2000000D0012129542088401C208000207CBDE2
:10A21000F8B5044601883648364A374D801AC008DA
:10A2200003226E8802EB0040262916D016DC102986
:10A2300028D0112933D013293BD021290DD12FA1AA
:10A2400001F0A4FE00200090A08869468FDF00285E
:10A2500003D02FA2E421FEF7DFFFF8BD3B293CD05D
:10A26000522930D05629F8D130A101F08FFEA088B4
:10A27000132176DF0028F0D025A2F821BDE8F840B0
:10A28000FEF7CABF2FA101F081FEA1886980304886
:10A2900001F05EFA0028E0D01DA2C921EEE72DA151
:10A2A00001F074FE4FF6FF706880BDE8F840FFF7DC
:10A2B000A5BC00231A46852130467FDF0028CCD07C
:10A2C00013A2D821DAE700231A4619463046B1DF37
:10A2D0000028C2D00EA2EA21D0E722A101F056FE4A
:10A2E000A088132176DF0028B7D009A2F121C5E7A5
:10A2F00098E3010028E30100E41A002050485920A7
:10A3000075706461746520726571756573742E0073
:10A310002E2E5C2E2E5C2E2E5C6C69625C61707041
:10A320005C6170705F626C652E630000474154543D
:10A33000205365727665722054696D656F75742E51
:10A3400000000000436F6E6E65637465640000007A
:10A350005C1C0020446973636F6E6E656374656492
:10A36000000000004741545420436C69656E74201E
:10A3700054696D656F75742E000000002DE9F0477B
:10A3800001883B4E40F2F3194FF6FF7510291BD0A0
:10A3900011293ED0122954D0502946D1C188F289C2
:10A3A000841D914241D1618902293ED1868830467F
:10A3B00000F0E0FD050038D004F10C0000F000F9D9
:10A3C000A8B3294630464EE0C17B87880446012960
:10A3D0002BD1A846284600F0CDFD050017D02F80D0
:10A3E00000202872234843464A460168C5F80A10EF
:10A3F0004068C5F80E0004F1100105F10A0000F0F4
:10A4000030FE6872F08900280FD129462AE0042026
:10A4100013E0808800F0AEFD040006D06068FFF70E
:10A4200071FD08B102F0E2FE2580BDE8F087FFE78C
:10A430006868FFF767FD0028F7D0BDE8F04702F035
:10A44000D5BE87880646384600F094FD0400ECD05F
:10A450002B464A4606F1080104F10A0000F001FE0D
:10A46000607221463846BDE8F04700F081BB00002D
:10A47000741D0020181B00202DE9F04702888688F3
:10A48000DFF8FCA098B0102A0DD0112A48D00AF1AC
:10A490001003192A63D01A2A6ED1007A0409042CF9
:10A4A00045D3012244E0364C083CA068C0430B90E1
:10A4B00061680BA801F04AF80B990CA800F0ADFAFE
:10A4C0002C220CA96846FEF7F9FF0027E8460FE0AA
:10A4D00008EB47005FF00005B0F8049004EB85003E
:10A4E0004946001D01F006F86D1C1E2DF6D37F1C99
:10A4F0000098B842ECD8142E07D318B0F021BDE86C
:10A50000F04720A20420FEF787BE3146504601F0F6
:10A5100007F818B03146201DBDE8F04701F000B83B
:10A5200018B031465046BDE8F04700F0E3BF0022C6
:10A530003146184600F095FC032C01D3012200E0BF
:10A5400000220F4831460C3000F08BFC022C01D366
:10A55000012200E000220A483146083007E0017A73
:10A56000002909D1407A3146C0F3C002184618B01C
:10A57000BDE8F04700F075BC18B0BDE8F0870000FA
:10A58000981D00202E2E5C2E2E5C2E2E5C2E2E5C16
:10A590002E2E5C2E2E5C636F6D706F6E656E747305
:10A5A0005C626C655C636F6D6D6F6E5C626C655F49
:10A5B000636F6E6E5F73746174652E6300000000DC
:10A5C000007800F00100704708B501F077FF20B176
:10A5D0000DA240F20D11FEF71FFE0020009069460B
:10A5E000012001F0D1FE20B107A240F21311FEF7C5
:10A5F00013FE684601F008FF002804D002A240F2D2
:10A600001711FEF709FE08BD2E2E5C2E2E5C2E2E95
:10A610005C6C69625C6170705C6170705F626C65DB
:10A620002E63000010B586B0044608686062486872
:10A63000A062234B8868E0620FCB0DF1040C8CE81C
:10A640000F0004F1220101A862DF002835D194F83F
:10A6500022008DF816000020ADF81400224605A94E
:10A660000120A8DF002828D1A01C012300901A4651
:10A670001946204600F0A4F900281ED104F10A0072
:10A680000090012305220221204600F099F90028BC
:10A6900013D104F112000090012308220321204667
:10A6A00000F08EF9002808D104F11A000090002370
:10A6B00001220621204600F083F906B010BD0000FB
:10A6C000D8DA01000A46014610460A88502A01D10C
:10A6D00002F0DCBA704700002DE9F84F0546861CF1
:10A6E00000208DF8000091460F464FF0010A6846A1
:10A6F000FFF72AFC1B4C04F21C4860683860D4E960
:10A700000101194F401A3968081A0EE0012140462C
:10A7100000F016FF00F042FD0146404600F010FF39
:10A72000D4E90101401A3968081A401C8642EDD864
:10A73000B9F1000F03D0052065F3891002E006206F
:10A7400065F39F5061683A68114004EB8101C8606D
:10A750006068304460609DF80000FFF719FC5046C7
:10A76000BDE8F88F18210020741B002070B50D463D
:10A7700004460A2902D10D21FFF7F8FFA0682268DC
:10A78000411CA1601554D4E90101814204D3204643
:10A79000BDE8704001F0D5B870BD00000448816884
:10A7A0004068814201D101207047002070470000BD
:10A7B0001821002010B502F07FFCBDE8104002F027
:10A7C0004DB900000249084490F93000704700007C
:10A7D000501E00202DE9F0438146887891B09046C4
:10A7E0000C4600B901208DF83E002088ADF83C00F1
:10A7F00000250095607C694602F0BFFD6E46A07C96
:10A80000711C02F0BAFDE07B00289DF8020002D026
:10A8100040F0080001E020F008008DF80200217CE3
:10A8200011B140F0100001E020F010008DF802009E
:10A83000217B11B140F0010001E020F001008DF812
:10A840000200217D09B1022100E0012161F34200F3
:10A850008DF802001C2102A8FEF749FE607BC106AC
:10A8600001D4800617D50E950EAFE07C791C02F05E
:10A8700084FD9DF83800079720F00F00401C20F061
:10A88000F00010308DF838009DF83A0020F00600F6
:10A89000801C8DF83A00607B8DF80800A07B8DF855
:10A8A0000900142109A8FEF722FE0FA8CDE9090628
:10A8B000A088ADF83000A06820B1E088ADF82C0089
:10A8C000A0680D90A06998B301950088ADF81000BC
:10A8D000A06901AD01A94088ADF81200A0694068E7
:10A8E00006950390A069007B02F047FDA069691CF2
:10A8F000407B02F042FDA069807A00289DF80600A6
:10A9000002D040F0080001E020F008008DF80600B9
:10A91000A169C97A11B140F0100001E020F01000E7
:10A920008DF80600A169097A19B140F0010002E032
:10A930000DE020F001008DF80600A169897B09B1C6
:10A94000022100E0012161F342008DF80600E06978
:10A9500000B10590434609AA02A94846AADF11B0F2
:10A96000BDE8F08370B5084C050009D010342168AB
:10A97000002907D008682060496828468847F6E71C
:10A980000834F4E770BD00003C1E0020054A012198
:10A9900020B1012805D19170FFF7E4BF517000206C
:10A9A000FAE770473C1E002010B5D0E90234D1E927
:10A9B0000220D11AA04101D3012010BD002010BDFA
:10A9C0002DE9F04188B00F4604461E461546202169
:10A9D0006846DDF83880FEF78AFDADF8007094F81F
:10A9E00022008DF802009DF80D10F04360F3410144
:10A9F00066F3C3010120ADF806508DF80D108DF8F7
:10AA00001100ADF804508DF81200208842466946C6
:10AA1000FFF7E0FE08B0BDE8F08173B58CB00646E4
:10AA2000002000900D9880B100246D4621460DA8AD
:10AA300000F06BFD30B1009805EB40008480009879
:10AA4000401C0090641C142CF0D32C226946304624
:10AA5000FEF734FD0EB070BD2DE9F04117880646B3
:10AA6000B81D14460D46984202D90C20BDE8F0816D
:10AA70003188072206290AD34FF4486C4FF6FF733A
:10AA8000614501D9994202D17088062801D2104649
:10AA9000ECE7604501D99842F9D1994203D0984238
:10AAA00001D08142F3D80520E85520881221401CAE
:10AAB00080B2208029542088401C80B22080411917
:10AAC000308802F0B7FE2188084480B22080411906
:10AAD000708802F0AFFE2188084420800020C5E77E
:10AAE00001A24521FEF798BB2E2E5C2E2E5C2E2E49
:10AAF0005C6C69625C6170705C68616E646C6573EB
:10AB00002E63000000B587B01C216846FEF7EFFCFD
:10AB10000020CD21CDE900014FF400710291032105
:10AB20008DF80C10ADF80E008DF810000748059058
:10AB3000074806906846FFF707FB002803D005A2E8
:10AB4000B121FEF769FB07B000BD000015CB010085
:10AB5000E1AA01002E2E5C2E2E5C2E2E5C6C69620A
:10AB60005C6170705C6170705F626C652E63000088
:10AB700038B54A7A0F4B62B100220A72596900292E
:10AB800006D001228DF80020ADF802006846884703
:10AB900038BD0A7A62B19B684C6802461946204665
:10ABA000FFF786F90028F3D0BDE8384002F01EBB5D
:10ABB0005B68F1E7741D002010B50021024800F029
:10ABC000D0FC80F3100010BD342500204FF48032FB
:10ABD0008A400168C1F848230068C0F8082370471C
:10ABE0004FF4A07202EB810189B200F030B92DE977
:10ABF000F04105460E464FF4A07000EB860081B28E
:10AC000028684FF48034B440984622F07F47C0F85B
:10AC100008432868C0F84843286801F079FB286891
:10AC200000EB8600C0F840752868C0F84443B8F1CE
:10AC3000000F02D02868C0F80443BDE8F081006826
:10AC4000D0F804057047000070B54379234C44F8F0
:10AC500023204279231D03EBC202224C1579204A9E
:10AC6000121BD4082DB10825022000EB04401EA1C0
:10AC700030E005680A88C5F8082590F9042089782D
:10AC8000002A4FEA411104DB02F1E02282F80014AD
:10AC900005E002F00F0202F1E02282F8141D90F9A3
:10ACA00004100122002909DB01F01F0502FA05F555
:10ACB0004909890001F1E021C1F8005141790025DD
:10ACC00003EBC1010A71417943F83100032000EB25
:10ACD00004400EA101F05AF9284670BD541B002013
:10ACE00080E3010028E3010052544320696E73742D
:10ACF000616E636520616C726561647920696E695B
:10AD00007469616C697A65642E0000005254433A9C
:10AD100020696E697469616C697A65642E0000004F
:10AD200090F90400002809DB00F01F020121914086
:10AD30004009800000F1E020C0F8001270470A4688
:10AD4000022100F07BB84FF4827100F080B80068F7
:10AD500001210160704700680121416070472DE9C1
:10AD6000F05F07460C464FF4A07000EB84001FFA1A
:10AD700080FA38684FF48036A6409B4622F07F4523
:10AD8000C0F848633868C0F808633868D0F80485AC
:10AD900000EB8402D2F84095C2F8408551463868ED
:10ADA00001F0B6FAA9EB080020F07F40012806D197
:10ADB000102001F0F7FC5146386801F0A9FA386814
:10ADC000D0F80485C0F84463A5EB080121F07F4169
:10ADD0003868012900EB840010D0C0F8405538686D
:10ADE000D0F804156FF07F4C6A1A521E22F07F4291
:10ADF000ACEB0B03934217D362B118E06D1CC0F8A3
:10AE00004055102001F0CEFC3868D0F804054045CC
:10AE10000AD10CE000EB84006D1CC0F84055386886
:10AE2000D0F80405884202D00D20BDE8F09F012231
:10AE30003146384600F002F80020F6E70368C3F810
:10AE40004413002A02D00068C0F80413704710B5FC
:10AE5000006842581AB101F05BFA012010BD0020D1
:10AE600010BD0AB100F05CBB00F044BB0EB515A1EB
:10AE70009DF8080020F00F00401C20F0F00010307A
:10AE80008DF808000D2202A87CDF18B111A226213E
:10AE9000FEF7C2F90020009001905021ADF80400A7
:10AEA000ADF800104FF4C8708900ADF80600ADF899
:10AEB000021068467ADF002803D006A23021FEF790
:10AEC000ABF90EBD475620466C6173686C696768C4
:10AED000740000002E2E5C2E2E5C2E2E5C6C69629F
:10AEE0005C6170705C6170705F626C652E63000005
:10AEF00010B50021054800F09FFB002805D0BDE8F3
:10AF0000104003A23821FEF787B910BD4C1C002069
:10AF10002E2E5C2E2E5C2E2E5C6C69625C61707035
:10AF20005C6170705F626C652E63000010B50B4849
:10AF3000FFF785FE094A083AD2E90434C018D2E97D
:10AF4000063244F10001C31A71EB020204D24FF041
:10AF50008072801841F1000110BD0000381B0020F4
:10AF600010B500F0F9FE002803D1BDE8104001F053
:10AF7000A5B910BD0146034802888A4200D00020CE
:10AF800070470000601D00202DE9FC5F0E00834625
:10AF9000DDE90C47C6F1000098469246814600D490
:10AFA0000846012503E000BF90FBFAF06D1C5045F8
:10AFB000FADAA84500D9454624B1002E01DB78070E
:10AFC00000D5641EB80702D5B8F1000F0AD0F80703
:10AFD00008D13CB1A54205D220215846641EFFF796
:10AFE000C5FBF6E7002E02DA4E462D2102E0780777
:10AFF00003D52B215846FFF7B9FB07F003000228C1
:10B000000BD1B8F1000F08D13CB1A54205D23021D7
:10B010005846641EFFF7AAFBF6E7CDE90047434612
:10B0200052463146584602F00BFCBDE8FC9F0246F2
:10B0300000201268530713D502F00300012802D044
:10B0400002280CD105E0C2F383100B68801C184461
:10B0500004E00223086803EB9252104408600120C8
:10B060007047F0B58488A518944200D82246A41AE7
:10B07000C288D6189A4200D81346D21A4B8807883D
:10B08000BB420CD34088834209D88888A04206D3AB
:10B09000A84204D8C888904201D3B04201D9002008
:10B0A000F0BD0120F0BD0268134602E08A4204D0E0
:10B0B0001268002AFAD10B600160704770B51A4D12
:10B0C00014462868FEF71EFF18B118A21A21FEF7D1
:10B0D000A3F8207828B3002002F036F96078A17830
:10B0E000000600EB0140E17800EB0120217908180F
:10B0F00019D0410CC0034FF47A52801841F100017D
:10B1000052000023FEF796F9014600222868FEF758
:10B11000CFFE002807D0BDE8704004A21E21FEF734
:10B120007BB80120D8E770BDC0DA01002E2E5C2E5E
:10B130002E5C2E2E5C6C69625C6170705C68616E66
:10B14000646C65732E630000704700002DE9FC41BC
:10B15000002002F0F9F80B4E64254FF47A47741C76
:10B160003846A0476D1EFAD1012002F0EDF800210B
:10B170000C2000910B460122019100F0DBFCBDE8A0
:10B18000FC810000D0DA01001721018041800021FC
:10B190000171417170477047704700002DE9FF4110
:10B1A0000026244800F0C9F92248001F074600F095
:10B1B000C4F9214C2149A06800900D6800E0009876
:10B1C0006946284004EB80000C30FFF730FF002870
:10B1D000F5D101AA009901EA050304EB8303491C98
:10B1E000DB6842F82030401C00910228F2D301981D
:10B1F00000F0030001280BD0022810D10198032190
:10B2000001EB90500099BDF80A6001EB900005E059
:10B210000198BDF80A60C0F38310084400903846D6
:10B2200000F088F908B10098A06004B03046BDE88D
:10B23000F08100003025002018210020741B002020
:10B2400000F00EFB18B119A21C21FDF7E5FF00204C
:10B2500000F040FB4FF48061002000F011FF18B1B6
:10B2600012A21621FDF7D8FF00F068FDFFF76EFF70
:10B2700002F0EEF901F00EF818B10CA22C21FDF746
:10B28000CBFFFFF7A1F9FFF7F1FDFFF731FE02F069
:10B2900021F8FEF751FCFFF735FC0020FFF78AFA92
:10B2A000FEF7ACFCFFF75CFEFCE700002E2E5C2EE8
:10B2B0002E5C2E2E5C6D61696E2E630070B5144697
:10B2C00082880E4605462088111D0144921C994231
:10B2D00001D8FE2A01D90C2070BD521C325420889E
:10B2E000FF21401C80B2208031542088401C80B255
:10B2F00020808119288802F09DFA2188084480B2B4
:10B300002080AA8842B1A96841B13044FEF7D6F83E
:10B310002088A98808442080002070BD072070BDC7
:10B320002DE9F047C5881E1DB6FBF5F78946B6FB2B
:10B33000F5F1044605FB176C407916686843DDF8A3
:10B3400020A0F718001F874200D9C61A166001E036
:10B350002468491E0029FBD1A5EB0C078846B7429B
:10B3600016D818E004EB0C00001D09EB0803BAF135
:10B37000000F3A4602D00146184600E01946FEF793
:10B380009DF82468F61B4FF0000CB844B54201D973
:10B39000374600E02F46002EE4D1BDE8F0870000DC
:10B3A00030B5024651B100F07FFE0021074C08E0A5
:10B3B00034F821301568AB4202D11160002030BD55
:10B3C000491C8142F4D3052030BD0000000000007C
:10B3D000F8B50F46017814460546012901D1687871
:10B3E00030B12088821C9A4232D8012902D006E06E
:10B3F0000720F8BD69780144891C994228D8181A99
:10B40000801E86B2ADF800602188B81C08446946E9
:10B410007DDF0028EDD12978022904D06878BDF8B5
:10B420000020904205D3BDF80000B04201D80920A9
:10B430000AE00820012905D16978B14202D8ADF8A7
:10B44000001001E0ADF80060BDF80010FE2901D940
:10B450000C20F8BD2288491CB9542188491C89B2A6
:10B46000218078542088401C2080BDF800100844BA
:10B4700020800020F8BD10B531B1B2FBF3F403FB1E
:10B4800014241CB1092010BD0E2010BD0160002144
:10B49000416081608281C381084610BD70B50C4651
:10B4A0000546FDF7C7FE002802D021882868084419
:10B4B00070BD10B50A8849888A4203D1FDF7FCFEA9
:10B4C000012010BD002010BD70B50C460546FDF7EB
:10B4D000D6FE002802D061882868084470BD10B5E7
:10B4E0000A8849888A4203D1FDF7C0FE012010BDB9
:10B4F000002010BD01F01F0301229A40D2434909E8
:10B5000000EB8100114600F021B84A0950F82200F2
:10B5100001F01F0201219140084000D00120704736
:10B5200001F01F0301229A40490900EB81001146F6
:10B5300000F01CB8002100F00FB8012100F016B88F
:10B5400008B56A46FDF70DFF009808BD08B56A46C4
:10B55000FDF7EDFE009808BD08B56A46FDF7E7FE69
:10B5600008BD08B56A46FDF7C9FE08BD08B56A46BC
:10B57000FDF7D0FE009808BD08B56A46FDF7FEFE4F
:10B58000009808BD38B5044600258DF8005068467F
:10B59000FEF7DAFC21686268086890420ED9401E06
:10B5A00008600178238AE26801FB0325227A21687A
:10B5B000101AC0B20A79824200D208719DF80000C8
:10B5C000FEF7E6FC284638BD38B5054600208DF864
:10B5D00000000C466846FEF7B7FCE868298A201A86
:10B5E000B0FBF1F12A681068431C136001709DF8EC
:10B5F0000000FEF7CDFC38BD10B530B1017A4268CD
:10B600000368891AC9B21A6006E00E2010BD0368EB
:10B610001A68541C1C601170491EC9B2F7D2006828
:10B6200000210171084610BDC20800F00703012087
:10B63000895C98400840704710B560B1C16017211F
:10B6400020F8021B20F8021B1B2100F8021BFFF749
:10B650009BFD002010BD0E2010BD00007CB50C46E7
:10B660008188002933D102880025102A06D0112AAA
:10B6700009D03A2A0BD0552A2ED129E0014620467E
:10B6800001F066FA28E0A01DFFF77EFD24E02246C7
:10B69000408934F8063F834200D818466080172856
:10B6A00000D217206080D06878B1607968B1184BFB
:10B6B000D3E90003CDE90003ADF802106088ADF8CE
:10B6C0000400D368694610469847657125717CBDB2
:10B6D0000146204601F082FAA07A0028F7D02846D9
:10B6E000E188A5DF012680B11128F0D000F0E6FF47
:10B6F00002460848084902B0401AC00806EB00405C
:10B70000BDE8704005A100F045BCA572E6727CBDA5
:10B71000E8DA010028E3010028E3010073645F62B6
:10B720006C655F67617474635F65786368616E6799
:10B73000655F6D74755F7265717565737428292016
:10B7400072657475726E65642025732E00000000AA
:10B7500020B10278DE2A03D0082070470E207047FF
:10B7600041800020704760B159B10278DE2A0AD0CA
:10B7700009684160DE2101704FF6FF7141800020B1
:10B7800070470E207047082070477FB50546002996
:10B790004DD0002D4BD008780C46DE2847D1A88824
:10B7A0006188884202D1204602F0D8F82888012812
:10B7B00025D002283BD011283AD0512837D135F86E
:10B7C000040F6188884232D1A978A81C02292ED1A1
:10B7D000017A042903D0062901D0052927D10021A7
:10B7E000009102228DF8002001914FF4C072029165
:10B7F0000391ADF80420007A05280FD010E0297AD3
:10B800002046012913D1A988428891420FD10121F4
:10B81000017204B0BDE8704002F0A0B8ADF80410A9
:10B8200028886946B0DF002801D0616888477FBD5D
:10B83000A88861888842FAD14FF6FF7060807FBD8A
:10B8400000F180400068002800D00120704708B552
:10B8500000F18040002101600068009008BD0000F8
:10B8600070B50D4C0125207808B185260EE000202A
:10B87000A06060602061E060084800F053FF064669
:10B8800000F068FE08B900F037FF257000F02CFFCB
:10B8900000B1A570304670BD3C1E00208DA901008E
:10B8A00038B500258DF800506846FEF74DFB084C72
:10B8B000E068401EE060E06828B900F015FF10B9AC
:10B8C00000F050FFA5709DF80000FEF761FB38BD49
:10B8D0003C1E0020F8B5134D0446A878002648B158
:10B8E00014B16168012088478DF800606846FEF752
:10B8F0002BFB0EE08DF800606846FEF725FB24B1B7
:10B90000084821461030FFF7CEFBE86808B900F080
:10B9100019FFE868401CE8609DF80000FEF738FB5E
:10B92000F8BD00003C1E00200FB408B503990029A3
:10B9300004D004AA00926A4600F00FF801B05DF846
:10B9400014FB10B582680446002A05D0D4E904032C
:10B95000216898470020A06010BD2DE9FC47914662
:10B960000C00804676D014F8011B39B125290ED081
:10B970004046FEF7FBFE20780028F4D198F80C0032
:10B98000002867D04046BDE8FC47FFF7DABF00203B
:10B99000012221782B291BD02D2902D0302908D152
:10B9A00002E040F0010001E040F00200641C002AC7
:10B9B000EFD100252A290ED02178A1F130020A2AE0
:10B9C00011D205EB850201EB4205641C303DF1E725
:10B9D00040F00400EAE7D9F800100B1DC9F8003068
:10B9E0000968641C0D44217800232E290BD114F81A
:10B9F000011FA1F130020A2A05D203EB830201EBF9
:10BA00004203303BF3E76C290DD068290BD069293C
:10BA100021D00BDC252918D0582931D063290ED02C
:10BA2000642915D117E014F8011FECE7702969D0DB
:10BA3000732932D075291BD0782909D120E0D9F893
:10BA40000000011DC9F8001001784046FEF78EFE87
:10BA5000641C90E76CE0D9F800100A1DC9F80020BA
:10BA60000968CDE900500A224046FFF78DFAEFE75A
:10BA7000D9F800100A1DC9F8002009680A2206E05A
:10BA8000D9F800100A1DC9F8002009681022CDE974
:10BA90000050404601F0D4FEDAE7D9F80010002744
:10BAA0000A1DC9F800200E68C00705D112E0404603
:10BAB000761C7F1CFEF75AFE31780029F7D104E08E
:10BAC000202140466D1EFEF751FEBD42C0D9002D1B
:10BAD000F6D1BDE74EB13046FDF714FD074604E050
:10BAE000202140466D1EFEF741FEBD4206D9002DC5
:10BAF000F6D103E04046761CFEF738FE3178002987
:10BB0000F8D1A5E7D9F80000011DC9F800100568B3
:10BB100030214046FEF72AFE78214046FEF726FEF9
:10BB200008200021CDE90001034610222946B0E794
:10BB3000BDE8FC8770B541EA4201DDE904564FF0EB
:10BB4000A04441EA830141EA052104EB800041EA77
:10BB50000641C0F8001770BD4FF0A04202EB800014
:10BB6000D0F8002722F44032C0F80027D0F8002790
:10BB700042EA0141C0F800177047000038B5094B90
:10BB800044181B6800936B4608E000BF53F8201070
:10BB9000D1F8205520C2C1F82055401C8442F5D868
:10BBA00038BD000008DB0100034908B50844002146
:10BBB00001600068009008BD0060004002494058E4
:10BBC000012800D0002070470060004030B5154AC1
:10BBD00001460020D2F8104423460AE0DB681D79B4
:10BBE000854205D1401C0A28F6DB4FF0FF3030BDFE
:10BBF0001B68002BF2D1431CF9D0CB681871D2F826
:10BC0000103443B1DB68CC681B682360D2F8102481
:10BC1000D268116030BDC2F81014C96800220A60F1
:10BC200030BD0000182100207047FDF7C7BD7047E8
:10BC300008B5034A00924023024A00F005F808BD07
:10BC4000FDD10100801F0020F0B595B01C461546BF
:10BC50000E4608461A9F00F0F7FA182109A8FDF7CA
:10BC600046FC0E97CDE909540023082203A930466B
:10BC700000F0FFFA05980690BDF81000ADF81C0022
:10BC8000BDF81200ADF81E0001208DF821000399C7
:10BC9000082501F00300012802D0022816D02FE069
:10BCA000C1F3C200C1F383178C0A8DF82000BA00DB
:10BCB0002B460FA9304600F0DCFA09A8009006AB2D
:10BCC0003A460FA9204600F01BFA19E0C1F3C20062
:10BCD0008C0D8DF82000082C01D2274600E00827A3
:10BCE0002B463A460FA9304600F0C3FA3D44E41B08
:10BCF00009AB06AA39460FA800F06AF9002CEAD170
:10BD0000304600F0A7FA15B0F0BD00000A4A01293C
:10BD100002EBC00007D0022907D0032907D004296D
:10BD200007D0002070470220704704207047007938
:10BD3000704740797047000028E3010010B5FFF715
:10BD400074FF04210348FFF741FF02490120C9683D
:10BD5000487110BD18E301002DE9F04F8DB0FEF7DA
:10BD60001DFD18B100200DB0BDE8F08F7D4C4FF0E7
:10BD7000000BC4F818B4BFF34F8F7B49A068029042
:10BD80000D68D846284004EB80000BE0D4F8180476
:10BD900070B961680298814201D8A160E2E7284049
:10BDA00004EB80000C3002A9FFF741F90028EDD127
:10BDB000002009AA029901EA050304EB8303491C48
:10BDC000DB6842F82030401C02910228F2D3099827
:10BDD00000F00301022902D001294DD0A8E0810D15
:10BDE00050228946B2EB905F00D850210E4666F390
:10BDF0009F50099008315D4800F0DDF9070077D0C9
:10BE000000F022FA4346082209A9384600F039FA20
:10BE1000029908F1080A2940681A8000001D86422C
:10BE200023D9504D0C3530B1C2B204EB8101301A28
:10BE300090460C3104E02946F2B20025904628468F
:10BE4000C6B25346384600F01CFA0AEB08032DB17F
:10BE5000324629464FEA070000F013FA029909F129
:10BE6000030001EB9000029039E004EB810153469E
:10BE7000324638460C31EFE7C0F38311062900D370
:10BE8000062161F389100990C0F38310801C8100A2
:10BE9000364800F090F907004AD000F0D5F9434643
:10BEA000082209A9384600F0ECF908F10808002634
:10BEB0000FE00298434600EA0501401C04EB8101B3
:10BEC0000290042238460C3100F0DBF908F1040836
:10BED000761C0998C0F38310B042EAD847B1D4F871
:10BEE0001054D4F8180478B1384600F0B3F934E0AF
:10BEF0001EE0E8684079012804D12A6828463946BE
:10BF000012689047E8680568002DF2D1384600F0C5
:10BF1000A1F98DF800B06846FEF716F8D4F81804B9
:10BF200008B90298A0609DF80000FEF731F814E00F
:10BF3000D4F8104405E02168204689688847E06805
:10BF40000468002CF7D10A480A49401AC0080221A7
:10BF500001EB004008A100F019F8FEF71FFC80F08B
:10BF6000010000E718210020741B0020B8E3010045
:10BF700098E3010028E301004261636B656E64731E
:10BF800020666C75736865640000000000231A4623
:10BF900001F06ABA08B5012300926A4601F064FA1A
:10BFA00008BD1CB5CDE9002302236A4601F05CFA06
:10BFB0001CBD70B586B00DF1280C9CE870008DE8B2
:10BFC0007C0005236A4601F04FFA06B070BD000000
:10BFD0002DE9F0470E4680461C469246082940D877
:10BFE00094F80C90002020731946104600F03EFF94
:10BFF0000025B54206D218F805201BA12046FFF700
:10C0000093FC03E01AA12046FFF78EFC6D1C082D5F
:10C01000EFD318A12046FFF787FC0025B54212D2C6
:10C0200018F805707E2F08D8FDF744FA0068C05D47
:10C0300010F03E0F01D03A4600E02E220EA120461D
:10C04000FFF772FC03E00DA12046FFF76DFC6D1CAD
:10C05000082DE3D301222146504600F0E9FE84F882
:10C060000C90BDE8F08700002025303278000000F9
:10C07000202020007C00000025630000200000003C
:10C08000064910B500200870054800F0E1F80028C6
:10C0900003D1044800F02EF9002010BD1821002023
:10C0A000B8E30100B8DC010002480349401AC008A7
:10C0B00070470000B8E3010028E3010013B56846AB
:10C0C000FFF76EF908B100201CBD0248009950F836
:10C0D00031001CBD28E3010070B508480125D0F8E7
:10C0E0001044057007E0E068457121682046496802
:10C0F0008847E0680468002CF5D170BD1821002045
:10C100002DE9FF4781460C9D00200C462F7B2873AC
:10C11000984616462946184600F0A8FE072E42D239
:10C12000DFE806F004090F161F2A360049462846A4
:10C13000FFF7FAFB37E0494628462268FFF7F4FB91
:10C1400031E0D4E9002349462846FFF7EDFB2AE019
:10C15000A0680090D4E9002349462846FFF7E4FB95
:10C1600021E0D4E90201CDE90001D4E900234946E8
:10C170002846FFF7D9FB16E004F1080007C88DE850
:10C180000700D4E9002349462846FFF7CDFB0AE023
:10C1900004F108000FC88DE80F00D4E900234946D8
:10C1A0002846FFF7C1FB00222946404600F040FE2A
:10C1B0002F73BDE8FF872DE9F041058A80462D1FCA
:10C1C0004819C01CB0FBF5F0C6B24046FFF7DAF9DB
:10C1D000041E19D00020207101206071E580002725
:10C1E0002546761EC4F800800BE04046FFF7CAF9EA
:10C1F00060B16179491C6171286005467F1CC0F8F7
:10C200000080B742F1D32046BDE8F081204600F01F
:10C2100002F80020F8E72DE9F041457901466B1E50
:10C22000002201E00968521C9A42FBD30F680146C4
:10C23000002605E038460C68FFF7C6F92146761C53
:10C24000AE42F7D3BDE8F0810121001DFFF778B9B8
:10C25000FFF7D2B910B504460121001DFFF78CF994
:10C2600010F0FF0F04D12046BDE81040FFF7D3BF08
:10C2700010BD1CB501920122009201AAFFF750F8EF
:10C280001CBD1CB501920022009201AAFFF748F8DC
:10C290001CBD0000064910B500204870091D08604B
:10C2A000BFF35F8F0349044800F09AF9002010BDE6
:10C2B000601B002050DB0100741F002010B500F04F
:10C2C00049F908B141DF10BD20BF40BF20BF10BDFC
:10C2D00001A26F21FCF7A0BF2E2E5C2E2E5C2E2E0D
:10C2E0005C6C69625C6170705C6170705F626C65EF
:10C2F0002E6300008268002191608268116182686B
:10C3000051618268D16082685160806801607047C5
:10C3100008B5002242504058009008BD024A106003
:10C32000101D0160704700002C7600400301034897
:10C330001844C0F81425C0F810157047007000406C
:10C3400002494058002800D001207047007000408A
:10C35000034908B50844002202600068009008BD47
:10C3600000700040024619B14020510088407047DB
:10C370008020FAE720B10349096801600020704776
:10C380000E2070473CDD0100FEB502460C46084613
:10C39000FFF7F0FF002835D1002500950195012613
:10C3A00006208DF80020ADF8040002958DF802609B
:10C3B00069462020226869DF0095019502958DF875
:10C3C000016069464020226869DF00950A208DF8E7
:10C3D00000000195029569460120226869DF4FF44B
:10C3E000B0600090019502956946A120226869DF3E
:10C3F0000095019502958DF800506946A0202268AD
:10C4000069DF0020FEBD000060DF002802D1024A83
:10C410000121117070470000CB1B002030B515487A
:10C4200091B00078002822D05FF03404ADF840408D
:10C4300010A903A861DF48B1052818D011B00EA2D9
:10C44000BDE8304040F23B11FCF7E6BE03AD1A49AF
:10C45000684600F0C5F806E0D0E90021284690477C
:10C46000684600F0D4F802980028DFD0F4E711B055
:10C4700030BD0000CB1B00202E2E5C2E2E5C2E2EFD
:10C480005C2E2E5C2E2E5C2E2E5C636F6D706F6E9C
:10C49000656E74735C736F66746465766963655CFE
:10C4A000636F6D6D6F6E5C6E72665F7364685F6202
:10C4B0006C652E630000000040DD01007CB5194C66
:10C4C000207808B108207CBD0120A070002000F079
:10C4D0005FFE112819D0002000F072FE12480026DD
:10C4E000006801908DF800606846FDF72DFD0F494A
:10C4F00001A810DF05000AD0002020709DF8000080
:10C50000FDF746FD2DB128467CBD00207CBD0120F5
:10C51000F3E7A670667000F055FF012000F050FEB2
:10C52000F3E70000C81B0020D4DC0100619C01007F
:10C530000EB50749684600F053F805E0D0E9001051
:10C540008847684600F063F802980028F6D10EBDCF
:10C55000F0DC01000148007870470000C81B002093
:10C560001FB568464BDF40B1052816D004B00BA2BA
:10C57000BDE810406B21FCF74FBE184901A800F040
:10C580002FF806E0D0E900210098904701A800F0BC
:10C590003EF803980028E4D0F4E71FBD2E2E5C2E51
:10C5A0002E5C2E2E5C2E2E5C2E2E5C2E2E5C636F4F
:10C5B0006D706F6E656E74735C736F6674646576B0
:10C5C0006963655C636F6D6D6F6E5C6E72665F73E1
:10C5D00064685F736F632E63000000005CDD010020
:10C5E000016009684160AFF3008010B5D0E9002117
:10C5F0005368994201D1002104E0D1E90034A342FB
:10C6000002D01946816010BD08314160F0E78168B1
:10C6100000290BD0026892680A44826041684B6826
:10C620009A4203D108314160FFF7DFBF704770B510
:10C630000D460646446804E0B2682946904718B1A2
:10C64000246820680028F7D120682860256070BD24
:10C6500040680068704741680868002801D0026897
:10C660000A60704702460020526806E08B4203D100
:10C6700008681060012070471A461368002BF5D136
:10C68000704700000C4A10B502F594730EE0991A39
:10C69000C91001EBD171491002EBC1010C68844251
:10C6A00001D90B4602E005D201F108029A42EED30D
:10C6B000002010BD486810BD70DB010000B5FFF719
:10C6C000E1FF002800D1014800BD00005CDB010053
:10C6D0004058002800D00120704708B50022425081
:10C6E0004058009008BD000002480068002800D0B3
:10C6F000012070470004014008480068012110F043
:10C70000010F06D14FF0E020C02280F800248430D1
:10C71000C1670349012008607047000000E100E0A4
:10C72000180500400649024600200B790BB1852010
:10C7300070470A6001220A7100224A7170470000A6
:10C74000201B002010B54FF48270FFF780F8022004
:10C750004107C1F8040302490120086010BD000030
:10C7600008000040022010B54107C1F808034FF44B
:10C770008270FFF76CF805490120086004480168E1
:10C78000C1F300410029FAD110BD00000C000040A7
:10C7900018040040002802D0014980010847704772
:10C7A00001DB0100002802D00149800108477047E1
:10C7B00021DB01002DE9F041254C064612200D46F3
:10C7C000C4F808032348017C022918D0027C0146E2
:10C7D0004FF4807891F82E10012A12D00222C4F86A
:10C7E000042301270774466005810022C26021B33B
:10C7F000458390F82D103046FFF790FD25E012207C
:10C8000002E0C2682AB10220C4F804031120BDE886
:10C81000F081C660058361B947463846FFF790FD51
:10C820000028FAD03846FFF793FD29463046FFF737
:10C8300075FD0220C4F8040307E029463046FFF7DF
:10C840006DFD4046FFF784FD27600020DFE7000014
:10C85000007000400C1E002070B50C4626490A7C72
:10C860000AB1112070BD2279244D0AB1012A01D1EB
:10C8700000222A6001EB4002137F1BB911F82D3F03
:10C880005B1C0B70E1791177217A517721786278FE
:10C89000302301F0030103EA02121143A2784FF49E
:10C8A000E06303EA02221143E2784FF4805303EA83
:10C8B0000232114322794FF4E02303EA024211438A
:10C8C00062794FF4801303EA02521143A2791B01EB
:10C8D00003EA02620A4B114303EB0012C2F8181577
:10C8E000227AE179FFF722FD207908B1012801D1F0
:10C8F00001202860002070BD0C1E00200075004043
:10C900000070004070B505460E48017C09B1112049
:10C9100070BD00EB45010A7F1AB110F82D2F521E91
:10C92000027000240C774C77224621462846FFF7F8
:10C93000FDFC40F2FF72D143284600F04FF820463C
:10C9400070BD00000C1E00202DE9F0411F4C054673
:10C9500094F82C0010B10820BDE8F08144F8101BB9
:10C960001B4928780860091D68780860E878A07776
:10C97000012727770020207060776060154EE077F0
:10C980006FF00040C6F808034FF48270FFF7E0FC38
:10C99000B015FFF7DDFC4FF48A70FFF7D9FCA878DB
:10C9A0000D49400181F800048020C91FC1F8000131
:10C9B0000220C6F80403A07F10B10120C6F80403CA
:10C9C0000348F03807600020C6E700000C1E002076
:10C9D000F07500400070004007E000E02DE9F041F4
:10C9E00017460C460546C1EA07401A4E06EB0511EC
:10C9F000C1F81C0500212846FFF7B4FC234601219D
:10CA000001EB4502144CC907D140626913F5006F70
:10CA10001BD00A436261C6F8040301212846FFF7D0
:10CA2000A1FC6A004FF00041D140A7F5E0636269C4
:10CA3000FF3B05D00A436261C6F80403BDE8F081FC
:10CA40008A436261C6F80803F8E78A436261C6F860
:10CA50000803E2E7007000400C1E00200849002097
:10CA60000A7C012A01D00820704791F82E30054A2F
:10CA700001210BB111607047024A121DFAE7000054
:10CA80000C1E00200070004070B519496FF0004086
:10CA9000C1F8080380214FF0E02201200025C2F8F0
:10CAA0008011BFF34F8FBFF36F8F114908310860BA
:10CAB00042F210744FF48A763046FFF741FC20B9F9
:10CAC0000020FFF767FE641EF6D10A4805600A4E93
:10CAD0003574002406EB4400007F10B1E0B2FFF78C
:10CAE00011FF641C082CF5D386F82C5070BD000093
:10CAF00000700040007500400C1E002003490860D3
:10CB0000034801680029FCD07047000004E501409B
:10CB100000E401400078002809D105483B21408805
:10CB200076DF002803D003A29A21FCF775BB70477B
:10CB3000E41A00202E2E5C2E2E5C2E2E5C6C696278
:10CB40005C6170705C6170705F626C652E63000088
:10CB500070B502468888C97B00EB400302EB4304B2
:10CB6000A41D012901D11188218021886288914268
:10CB700013D9A5DF012578B111280FD0FFF79EFD4D
:10CB8000024607480749401AC00805EB0040BDE8C7
:10CB9000704005A1FFF7FEB9657170BD257170BDCC
:10CBA00028E3010028E3010073645F626C655F673E
:10CBB000617474635F65786368616E67655F6D74E7
:10CBC000755F726571756573742829207265747557
:10CBD000726E65642025732E000000007CB5064649
:10CBE0008D88C88805EB450106EB4104A41D172874
:10CBF00000D217202188814200D80846608000209A
:10CC0000207121882846B5DF60B1FFF757FD024645
:10CC10000F481049401AC008012101EB00400EA145
:10CC2000FFF7B8F96079002810D1F06800280DD01E
:10CC30001549D1E90201CDE90001ADF80250608843
:10CC4000ADF80400F2686946304690477CBD0000AC
:10CC500028E3010028E3010073645F626C655F678D
:10CC6000617474735F65786368616E67655F6D7426
:10CC7000755F7265706C7928292072657475726EA3
:10CC800065642025732E0000E8DA01002DE9F041EB
:10CC9000054642882048214B0C46C01A8E1DC98883
:10CCA000C008032303EB004091420BD17289012A93
:10CCB00008D16A6A32B11AA1FFF768F9327BA088FD
:10CCC0006B6A1DE06A8906F10C0791420AD17289EC
:10CCD000052A07D1AA6A2AB115A1FFF757F9A0883A
:10CCE000AB6A0CE06A8A91420DD1718908290AD198
:10CCF000E96A41B113A1FFF749F9A088EB6A3A4606
:10CD00002946984702E013A1FFF740F9FFF724F8FE
:10CD10000028FBD1BDE8F08198E3010028E3010081
:10CD20006C6F636B5F68616E646C6572000000001D
:10CD30006C65645F706F7765725F68616E646C6567
:10CD4000720000006C65645F70776D5F68616E648F
:10CD50006C65720077726974652068616E646C65D9
:10CD6000206E6F7420666F756E6400002DE9F05FB1
:10CD70002A4F06464FF0A04A4FF0010B0024381905
:10CD800090F95010491C3CD090F85000314620F0EA
:10CD9000C0052846FEF748FC20B3204600F040F8C6
:10CDA00081460AEB8500D0F80007C0F30148B8F1CE
:10CDB000020F18D002212846FEF7CEFE0BFA05F12D
:10CDC000CAF820152846FDF7FDFC57F820204AB187
:10CDD0004846B9F1030F11D0B8F1020F05D0B8F1F0
:10CDE000030F07D00DE00321E5E74846B9F1010F35
:10CDF00004D006E04846B9F1020F02D101462846A8
:10CE00009047641C042CBAD3324601210020FEF75F
:10CE1000B5FE30680028B1D1BDE8F09F501E00205B
:10CE20000249084490F8500080097047501E0020C5
:10CE300010B50C46017A052908D0407A38B1084867
:10CE400008A102682046FEF76FFD00E01AB106A1B6
:10CE50002046FEF769FD2046BDE81040FEF771BD93
:10CE6000A41B0020257300000D0A000038B5C388FC
:10CE70000D46044633B114A0009015A216A1284611
:10CE8000FEF752FD217A05291CD0607A48B1A088AE
:10CE9000FEF73CFF164951F8202016A12846FEF760
:10CEA00043FDA0880021FFF709F903461049207AC5
:10CEB000143951F8202001B02846BDE830400EA1B9
:10CEC000FEF732BD38BD00001B5B306D0000000076
:10CED0001B5B313B33316D0025734C6F67732064EE
:10CEE000726F70706564202825642925730D0A000F
:10CEF000A41B0020257300003C25733E2025733AB7
:10CF00002000000070B50546FDF71DFF134C40B131
:10CF1000D4E904024FF08071411842F10000C4E9E5
:10CF2000041000212846FDF75BFE30B1606820B197
:10CF3000606800F0E5FA0020606001212846FDF7F6
:10CF40004FFE18B1FDF7F2FFC4E90601284600F0D4
:10CF500023FB2846BDE8704000F03AB8301B0020A3
:10CF60002DE9F04700260E70D0E902740D46814687
:10CF7000FDF7DCFF381A002364EB01011A461B1A87
:10CF80008A4116DADFF84080404504D9FCF74CFFAF
:10CF900000EB080200E03A464FF4962300210B48CC
:10CFA000FDF7DDFE10B10D2807D00AE00120BDE835
:10CFB000F08700210548FDF709FE484600F0A0FA79
:10CFC00028700020F3E70000FF4FFB00381B002013
:10CFD000F8B5204C064600251F48FFF739FB10B373
:10CFE000D0E90210CA4372EA000224D0626882B11A
:10CFF0006368D3E90223891A984127D26068D0E98F
:10D000000210C94371EA000103D061681248FFF7BA
:10D010000EFB00F023FA07466946FFF7A1FFB0B107
:10D02000606858B10DE0606800280FD13046BDE857
:10D03000F840FDF790BE00F011FACDE73046FDF75D
:10D0400086FE67609DF800000028C5D1F8BD6560C8
:10D05000C2E70000301B002014DB010010B50446BD
:10D06000007868B901216068FFF7A4FB18B106A237
:10D070000721FCF7D1F860680E4900888008087025
:10D08000BDE81040FFF700BD2E2E5C2E2E5C2E2E2C
:10D090005C6C69625C426174746572795F6C657620
:10D0A000656C5C426174746572795F6C6576656C01
:10D0B0002E630000E01A00200EB5114A07CA8DE861
:10D0C00007000F480F49001FFFF73EFC18B10EA2E2
:10D0D0001021FCF7A1F869460020FFF7BDFB18B14D
:10D0E00009A21121FCF798F801211248FFF762FB11
:10D0F000002803D004A21221FCF78EF80EBD000018
:10D10000B4DA01005DD001002E2E5C2E2E5C2E2E96
:10D110005C6C69625C426174746572795F6C65769F
:10D12000656C5C426174746572795F6C6576656C80
:10D130002E630000E21A002038B50021012548B115
:10D14000012810D003280DD1FFF7D6FABDE83840EA
:10D15000FEF7A6BB4FF0E020C0F88051BFF34F8F21
:10D16000BFF36F8F38BD8DF800106846FCF7ECFEFA
:10D17000064C207808B9FEF773FBE068401CE060BD
:10D18000A5709DF80000FCF703FF38BD3C1E002091
:10D190003EB5044609496846FFF722FA08E000BF99
:10D1A000D0E900212046904730B16846FFF72FFABA
:10D1B00002980028F4D13EBD11203EBDD8DC01000C
:10D1C0003EB5044608496846FFF70AFA07E000BF83
:10D1D000D0E90021204690476846FFF718FA0298E8
:10D1E0000028F5D13EBD0000E4DC01000249896958
:10D1F000002900D008477047741D00202DE9F04138
:10D200001400884618D000250E4F032608EB0501B0
:10D2100022460020FCF7D4FA0544241A40B9387895
:10D22000002809D008494FF47A408847761E05D077
:10D2300001203870002CE9D1BDE8F0810020387061
:10D24000FAE70000681B0020B1DC01002DE9F04185
:10D250000746806A14468846C8B3002531E000BFFF
:10D26000B96A05EB450001EB8006B088801CFE28FA
:10D2700002D90C20BDE8F0812288401C08F8020089
:10D2800020881622401C80B2208008F800202088C8
:10D29000401C80B2208000EB0801308800F0CAFA00
:10D2A0002188084480B22080B28842B1B16871B14F
:10D2B0004044FCF703F92088B188084420806D1CA5
:10D2C000EDB297F82C00A842CAD80020D2E7FFE7B9
:10D2D0000720CFE71FB500200090019002900E4874
:10D2E000039003A90D48FEF73EFA18B10CA27E2167
:10D2F000FBF792FF114800901148019011480290ED
:10D30000064869464038FDF78DF9002803D004A28D
:10D310008621FBF781FF1FBDD1C201005C1C0020EC
:10D320002E2E5C2E2E5C2E2E5C6C69625C61707001
:10D330005C6170705F626C652E63000097B10100E4
:10D34000BDB0010049B101001CB5002104460091A7
:10D350000B46012201910C201146FEF7EBFB4FF02A
:10D36000A0404FF4805114B1C0F808151CBDC0F89E
:10D370000C151CBD0120FFF7E7BF0A78062822F034
:10D38000FF020A7010D2DFE800F0030507090B0D59
:10D39000002008E0112006E0212004E0312002E016
:10D3A000122000E02220087070470000002805D1FC
:10D3B0000349012048700020FDF7D4BA70470000EF
:10D3C0003C1E002010B51620FCF7A4FBA0B11248AB
:10D3D00090F800044009082811D20121814011F081
:10D3E000EC0F0CD00D4882684FF480017AB10168CF
:10D3F00041F48001016010BD42F2010001E042F2FF
:10D400000200BDE8104006A2A121FBF705BF4FF0C6
:10D41000E020C0F8001110BD16E000E0681F0020F9
:10D420002E2E5C2E2E5C2E2E5C2E2E5C2E2E5C2E36
:10D430002E5C636F6D706F6E656E74735C736F6678
:10D44000746465766963655C636F6D6D6F6E5C6E49
:10D4500072665F7364682E63000000000148FFF786
:10D46000FAB8000014DB01002DE9F84F0746224806
:10D470009146884605681E46012269461846FDF712
:10D480002BF9DFF878A060B3009800210446801CD7
:10D490000AE000BF00EA050259F821C00AEB820247
:10D4A000401C491CC2F80CC0B142F3D34FEA1749E3
:10D4B000FDF782FB611C29400AEB810149EA004229
:10D4C0002C40CA600AEB8401C86867F3C50066F3A4
:10D4D000891068F39F2020F00300401C20F0040016
:10D4E000C8609AF8000001E0FEF736FC0028FBD186
:10D4F000FDF752FEBDE8F88F741B002018210020B4
:10D50000F8B5044622480026007878B374B3FDF7D6
:10D510000DFDD4E90232C01A91412DD300258DF8BA
:10D5200000506846FCF710FD206910B9681EC4E978
:10D5300002009DF80000FCF72BFDD4E90510884798
:10D540008DF800506846FCF7FFFC22697AB1D4E9F7
:10D550000210CB4373EA000309D089186841C4E97B
:10D5600002109DF80000FCF713FD09E00DE09DF8A6
:10D570000000FCF70DFD08E0D84370EA020004D07B
:10D5800021460448FFF753F801263046F8BD000055
:10D59000301B002014DB010038B51D4D694628689A
:10D5A000FDF792FF1B4C30E0017821B101290ED02C
:10D5B000022922D117E04168D1E90220D24372EA60
:10D5C00000021AD012480830FFF731F815E0416820
:10D5D0006068814202D1002060600EE00C48083093
:10D5E000FFF740F809E0FFF739FF20B14FF0FF31B6
:10D5F000C0E90211F7E70120207069462868FDF7AD
:10D6000058FF69462868FDF75FFF0028CCD138BD78
:10D610000CDB0100301B0020F8B50B4C0D46064614
:10D6200069462068FDF73AFF58B1067045606946C3
:10D630002068FDF754FF10B10448FDF771FB00208E
:10D64000F8BD0420F8BD00000CDB0100381B0020F1
:10D6500010B5FCF7FFFB18B108A20821FBF7DCFDB1
:10D660000D4A00210D48FCF7E5FB002805D0BDE878
:10D67000104002A20921FBF7CFBD10BD2E2E5C2E5B
:10D680002E5C2E2E5C6C69625C6170705C68616EF1
:10D69000646C65732E63000075D30100C0DA01006D
:10D6A0002DE9F04F0C464FF4927887B0054641467D
:10D6B000FFF70EF84FF0020B01274FF4827640B1CE
:10D6C00041462846FFF709F831462846FFF700F89B
:10D6D000E8B14FF482712846FEF7FAFF010004F129
:10D6E0000C00DFF84C91EA4645F307364FF000088E
:10D6F000069048D04FF482712846FEF7EEFF94F86A
:10D700002000400624D494F82E00C8B120E0A06880
:10D71000C5F80803C4F808B0A068C5F804034FF4BE
:10D72000B0712846FEF7D4FF18B1D5F80002800585
:10D7300001D42F626F6184F82E7007B0BDE8F08FBE
:10D740002146284600F083F980F0010084F82E007D
:10D7500094F8200040073ED414220AF104000699F0
:10D76000FBF7ACFE4FF4B0712846FEF7B6FF4FF45E
:10D77000AE712846FEF7B1FF94F8300008B394F874
:10D780002E00F0B927E04FF4A4712846FEF7A5FF5C
:10D79000207B68B14FF40070C5F80002801CA060C7
:10D7A000C5F80893A068C5F80403AF602F62C4E70A
:10D7B00014220AF104000699FBF780FE94F8300069
:10D7C00048B90020C5F80002C4F80880C5F80893DD
:10D7D0003046FCF734F9D5F8C404C5F8C404810711
:10D7E00002D58DF8007011E0410702D58DF800B028
:10D7F0000CE0C00701D0032003E094F82E0018B11C
:10D8000004208DF8000001E08DF8008094F83000CD
:10D8100008B984F82F8094F82000400703D594F8C5
:10D820002E00002889D0D4E900216846904784E77B
:10D8300002029C010870000A487002207047000034
:10D840002DE9F05F8346DDE90A4A994690460D4688
:10D850000846012703E000BFB0FBF8F07F1C4045FD
:10D86000FAD2B94500D94F465FEACA7012D18CB1DD
:10D870005FEA8A7002D5B9F1000F01D0202607E0D7
:10D88000302605E031465846641EFCF76FFF0CB1A8
:10D89000A742F7D35FF00106B9F1010F02D9A9F150
:10D8A000010903E0B5FBF6F0404502D306FB08F69C
:10D8B000F2E7DFF83C9000BFB5FBF6F000FB165531
:10D8C00019F800105846FCF751FFB6FBF8F6002E89
:10D8D000F2D15FEACA7009D0002C07D0A74205D266
:10D8E00020215846641EFCF741FFF5E7BDE8F09F94
:10D8F00026DB0100F8B5054680B2FDF73BFB0400CE
:10D9000013D0154E207A0027317B88420ED2A8B260
:10D9100004F10A0175DF28B1112806D0BDE8F840EE
:10D92000FFF764BC207A401C2072F8BD2772307C5F
:10D9300038B1A8B23B2176DF18B1082801D0FFF733
:10D9400055FC71690029F0D08DF80070ADF80250D7
:10D9500068468847F8BD0000741D002030B40446B6
:10D96000007A00280AD06088002166DF28B11128DB
:10D9700002D0616830BC08470120207230BC70477B
:10D980002DE9FC411646DDE90854CDE900541F4657
:10D990008046022200F00CF8002807D1CDE900549F
:10D9A0003B4610223146404600F002F8BDE8FC81BB
:10D9B0002DE9FC5F0026DDE90C4B994692468E4628
:10D9C00080462788354630E0D8F80400002200EB76
:10D9D000850069460068019001A864DF002830D105
:10D9E0009DF8000050451FD10EB1002100E002213A
:10D9F000228808441118594522D846B9521C90B2C1
:10DA0000208009F800E02088401C20800126218821
:10DA100001A801EB0902694664DF002811D12088C2
:10DA20009DF80010084420806D1CB8F80000A84242
:10DA3000CADC56B12088C01B401E80B2FF2802D924
:10DA40000C20BDE8FC9F09F807000020F9E710B59D
:10DA50000B7B0122E3B1012B1DD0022B0FD0032B36
:10DA600024D18B685B0304D5D0F84C350C69A342F4
:10DA700016D18B685B0319D4D0F84C3506E0D0F88A
:10DA80004C350C69A3420BD1D0F83C35496905E00F
:10DA9000D0F84C3501E0D0F83C3509698B4205D00F
:10DAA0000022C0F800250621C0F80015104610BD60
:10DAB0000100060000000000020000090000000054
:10DAC000F81A002000000000000000000000000024
:10DAD0000738FDD870470000454C425F6C6975748B
:10DAE0006E61564700000000770A00000000000049
:10DAF000770A0000000000000000000000000000A5
:10DB00000738FDD87047000000000050001F0020BB
:10DB10001F00060000000000501B0020A9A9010002
:10DB20000738FDD87047303132333435363738391D
:10DB30004142434445460000000000000000000050
:10DB400000000000000000000000000000000000D5
:10DB500038DB010050DB010004000000556E6B6EE5
:10DB60006F776E206572726F7220636F646500005C
:10DB70000000000068E101000100000014E0010065
:10DB80000200000008DE01000300000088E0010040
:10DB900004000000DCE0010005000000BCDF010023
:10DBA0000600000058DF010007000000C4E001008B
:10DBB00008000000D0DF01000900000034E001008F
:10DBC0000A00000050E101000B000000F0DD010040
:10DBD0000C000000E8DF01000D000000B8E10100CA
:10DBE0000E000000B4E001000F000000F0E00100B2
:10DBF0001000000024E1010011000000CCE1010050
:10DC000012000000A0E10100130000003CE101004F
:10DC10008000000070DF010081000000ACDE010028
:10DC2000820000006CDE0100830000004CDE010079
:10DC30008400000088DE01008500000094DF010000
:10DC4000860000009CE001009000000038DF010029
:10DC5000910000002CDE010092000000FCDF0100BA
:10DC60000082000004E101000182000050E0010098
:10DC7000028200006CE0010000840000C8DE0100A8
:10DC80000184000074E101000284000010DF010043
:10DC900003840000ECDE010031BC01002FBC010058
:10DCA00029BC01000000000000000000000000008E
:10DCB0000738FDD870470000802000207F0000005A
:10DCC0000021002000000000000000000000000013
:10DCD0000000000000200801C4DC0100D4DC0100C9
:10DCE00008000000FCDC01000CDD01000800000061
:10DCF0000CDD01001CDD0100080000005CE40100F7
:10DD000064E4010000000000000000004CE4010099
:10DD10005CE401000000000000000000CCE3010012
:10DD2000D4E30100D4E301001CE401001CE4010081
:10DD30003CE401003CE4010044E40100E01A00205E
:10DD40001CDD01003CDD01000800000044E401008E
:10DD50004CE4010000000000000000004CDD010068
:10DD60005CDD0100080000000040404040404040B1
:10DD7000404041414141414040404040404040409E
:10DD80004040404040404040400502020202020242
:10DD90000202020202020202022020202020202091
:10DDA00020202002020202020202909090909090A5
:10DDB0001010101010101010101010101010101063
:10DDC00010101010020202020202888888888888D7
:10DDD00008080808080808080808080808080808C3
:10DDE00008080808020202024000000069DD010084
:10DDF0004E52465F4552524F525F494E56414C4932
:10DE0000445F4441544100004E52465F4552524FD8
:10DE1000525F534F46544445564943455F4E4F5415
:10DE20005F454E41424C4544000000004E52465F63
:10DE30004552524F525F464541545552455F4E4FF1
:10DE4000545F454E41424C45440000004E52465FEF
:10DE50004552524F525F4D555445585F554E4C4FA9
:10DE6000434B5F4641494C45440000004E52465FDB
:10DE70004552524F525F4D555445585F4C4F434B9E
:10DE80005F4641494C4544004E52465F4552524F11
:10DE9000525F4D555445585F434F4E445F494E497C
:10DEA000545F4641494C4544000000004E52465FD5
:10DEB0004552524F525F4D555445585F494E495453
:10DEC0005F4641494C4544004E52465F4552524FD1
:10DED000525F424C455F495053505F52585F504B20
:10DEE000545F5452554E4341544544004E52465F90
:10DEF0004552524F525F424C455F495053505F501C
:10DF00004545525F52454A45435445440000000090
:10DF10004E52465F4552524F525F424C455F495008
:10DF200053505F4C494E4B5F444953434F4E4E450F
:10DF300043544544000000004E52465F4552524F44
:10DF4000525F4150495F4E4F545F494D504C454DD3
:10DF5000454E5445440000004E52465F4552524FD4
:10DF6000525F4E4F545F535550504F5254454400EA
:10DF70004E52465F4552524F525F4D4F44554C45AD
:10DF80005F4E4F545F494E495449414C495A4544AC
:10DF9000000000004E52465F4552524F525F4D4FB7
:10DFA00044554C455F414C52454144595F494E49A7
:10DFB0005449414C495A4544000000004E52465FC6
:10DFC0004552524F525F4E4F545F464F554E44009C
:10DFD0004E52465F4552524F525F494E56414C4950
:10DFE000445F5354415445004E52465F4552524F90
:10DFF000525F444154415F53495A45004E52465F77
:10E000004552524F525F494F5F50454E44494E472B
:10E01000000000004E52465F4552524F525F535629
:10E02000435F48414E444C45525F4D495353494E1E
:10E03000470000004E52465F4552524F525F494ED4
:10E0400056414C49445F4C454E475448000000003F
:10E050004E52465F4552524F525F4452565F54579C
:10E06000495F4552525F414E41434B004E52465F1D
:10E070004552524F525F4452565F5457495F455282
:10E08000525F444E41434B004E52465F4552524F01
:10E09000525F494E5445524E414C00004E52465F2D
:10E0A0004552524F525F53544F524147455F465578
:10E0B0004C4C00004E52465F4552524F525F4E55F7
:10E0C0004C4C00004E52465F4552524F525F494EF3
:10E0D00056414C49445F504152414D004E52465FBB
:10E0E0004552524F525F4E4F5F4D454D000000006C
:10E0F0004E52465F4552524F525F464F524249443C
:10E1000044454E004E52465F4552524F525F445274
:10E11000565F5457495F4552525F4F5645525255CC
:10E120004E0000004E52465F4552524F525F494EDC
:10E1300056414C49445F4144445200004E52465FB0
:10E140004552524F525F5245534F5552434553002B
:10E150004E52465F4552524F525F494E56414C49CE
:10E16000445F464C414753004E52465F535543432C
:10E17000455353004E52465F4552524F525F424CF8
:10E18000455F495053505F4348414E4E454C5F41B7
:10E190004C52454144595F4558495354530000007F
:10E1A0004E52465F4552524F525F434F4E4E5F4371
:10E1B0004F554E54000000004E52465F4552524F9C
:10E1C000525F54494D454F55540000004E52465F32
:10E1D0004552524F525F4255535900007761726E5B
:10E1E000696E670064656275670000001B5B313B08
:10E1F00033306D001B5B306D000000001B5B313B5A
:10E2000033316D001B5B313B33326D001B5B313BA7
:10E2100033336D001B5B313B33346D001B5B313B93
:10E2200033356D001B5B313B33366D001B5B313B7F
:10E2300033376D00696E666F000000006572726FA3
:10E24000720000006E72665F626C655F6761747475
:10E25000000000005341414443000000636C6F63C1
:10E260006B000000434C4F434B0000004750494FA8
:10E2700054450000505253005541525400000000D4
:10E2800055415254450000005457494D00000000CC
:10E29000505049006170705F627574746F6E000059
:10E2A0006170705F74696D65720000007077725FF5
:10E2B0006D676D7400000000736F72746C69737425
:10E2C000000000007274745F6C6F675F6261636B63
:10E2D000656E6400617070006E72665F73646800E2
:10E2E0006E72665F7364685F626C65006E72665F13
:10E2F0007364685F736F630064E40100E01A0020D8
:10E30000F0000000F49A010054E50100D01B002049
:10E31000F0130000049B010098DC010000000000E5
:10E32000C4E201006C1B002044E201000000030372
:10E3300054E20100000000005CE201000000000067
:10E3400064E20100000000006CE201000000000037
:10E3500074E201000000000078E20100000000000B
:10E3600080E201000000000088E2010000000000DF
:10E3700090E201000000000094E2010000000000B3
:10E38000A0E2010000000000ACE20100000000007B
:10E39000B8E2010000000000D4E201000000030325
:10E3A000D8E2010000000000E0E2010000000000EF
:10E3B000ECE2010000000000801B0020781B002020
:10E3C000801B0020C01F00201800000079A401005D
:10E3D00000000000C5A60100D01B00205DB60100B2
:10E3E000001C0020C5A601001C1C00205DB6010019
:10E3F0004C1C0020C5A60100A81C00205DB6010031
:10E40000D81C0020C5A60100F41C00205DB6010048
:10E41000241D00207DA30100000000008BB7010037
:10E42000101C00208BB701005C1C00208BB7010082
:10E43000E81C00208BB70100341D002011A2010050
:10E4400000000000ADD30100000000001DC4010069
:10E450000000000061C501000000000039D101008A
:10E460000000000000000000FF00FFFF681C00200B
:10E470001F000000871C00201F000000000000009B
:10E4800000000000FFFFFFFFFFFFFFFF0000000094
:10E49000000000000000000000000000000000007C
:10E4A000000000000000000000000000000000006C
:10E4B000000000000000000000000000001001400B
:10E4C0001100040000000000000000000000000037
:10E4D000000000000000000000000000000000003C
:10E4E000000000000000000000000000000000002C
:10E4F00000000000FF000000FF000000000000001E
:10E50000000000000000000000000000000000000B
:10E5100000000000000000003CE20100DCE101001E
:10E5200034E20100E4E10100F4E10100ECE101006A
:10E53000FCE1010004E201000CE2010014E2010030
:10E540001CE2010024E201002CE2010000000000B6
:04E550000090D00364
:040000050001920163
:00000001FF
